:0400000056EF2FF098
:105D180001500302F3CF05F0F4CF06F0015004025E
:105D2800F350062602500302F350062605C001F080
:105D380006C002F01200000E036E000E026E035041
:105D4800800A800F140ED8B4025CD8B01200820EFC
:105D5800016EDE0EE82EFED7012EFCD7024A032A7A
:105D6800EED7320046005700620064005D004F0025
:105D78003C00280015000700000002000D001E006E
:105D88000D001B0028003500430050005D00640032
:105D98005D0050004300350028001B000D000DD0A9
:105DA8000450800F08D00450C00F05D00450940F41
:105DB80002D00450D40F0A6E15D006C008F007C0F0
:105DC80009F00950000AD8A40DD00850010AD8B427
:105DD800E7D7030AD8B4E7D7010AD8B4E7D7070A40
:105DE800D8B4E7D70A50B0EC33F01200000E096EB1
:105DF800000E0A6E000E0B6E000E0C6E01A008D08D
:105E08000550092606500A2207500B2208500C227A
:105E1800D8900536063607360836D890043203324D
:105E2800023201320450011002100310D8A4E6D740
:105E380009C001F00AC002F00BC003F00CC004F066
:105E48001200076E0DD00450800F08D00450C00F08
:105E580005D00450940F02D00450D40F086E0DD012
:105E68000750010AD8B4EFD7030AD8B4EFD7010A0C
:105E7800D8B4EFD7070AD8B4EFD70850B0EC33F04E
:105E880009D005C0D9FF06C0DAFFDF5044EC34F072
:105E9800054A062A05C0D9FF06C0DAFFDF50D8B484
:105EA8001200EFD700EECEF0100EEE6AE806FDE124
:105EB800446A436A426A416A406A3F6A3E6A300EEF
:105EC800F66E630EF76E000EF86E01EE00F010EE3F
:105ED80098F00900F5CFEEFFE550E150FAE16A0EBF
:105EE800F66E5D0EF76E000EF86E00EE60F010EEC6
:105EF8003CF00900F5CFEEFFE550E150FAE1000E65
:105F0800F86E0001E2EF36F0076E0DD00450800FF6
:105F180008D00450C00F05D00450940F02D004508C
:105F2800D40F086E0DD00750010AD8B4EFD7030A72
:105F3800D8B4EFD7010AD8B4EFD7070AD8B4EFD747
:105F48000850B0EC33F00AD005C0F6FF06C0F7FFE2
:105F58000800F55044EC34F0054A062A05C0F6FF5F
:105F680006C0F7FF0800F5500009D8B41200ECD7B6
:105F7800670ED36E21EE00F010EE13F0280EDECF80
:105F8800E6FFE82EFCD726D0000E3C6E000E3B6ED6
:105F98003C50800A800F140ED8B43B5CD8B01AD09D
:105FA800000E0A6E010E096E130E116E000E126EAF
:105FB800D8903B34D96E3C34DA6E1150D926125041
:105FC800DA22DECF0BF0DDCF0CF006EC31F03B4AE5
:105FD8003C2ADED780A01200D7D7670ED36E21EEF9
:105FE80050F010EE13F0240EDECFE6FFE82EFCD7BB
:105FF80026D0000E386E000E376E3850800A800F9B
:10600800120ED8B4375CD8B01AD0000E0A6E010E42
:10601800096E130E116E000E126ED8903734D96EB9
:106028003834DA6E1150D9261250DA22DECF0BF04E
:10603800DDCF0CF006EC31F0374A382ADED780A0E5
:106048001200D7D7670ED36E20EE60F010EE13F073
:106058001E0EDECFE6FFE82EFCD726D0000E326EED
:10606800000E316E3250800A800F0F0ED8B4315CAA
:10607800D8B01AD0000E0A6E010E096E130E116EFA
:10608800000E126ED8903134D96E3234DA6E115057
:10609800D9261250DA22DECF0BF0DDCF0CF006EC59
:1060A80031F0314A322ADED780A01200D7D7670EE6
:1060B800D36E21EE28F010EE13F0280EDECFE6FFA7
:1060C800E82EFCD726D0000E3C6E000E3B6E3C50EE
:1060D800800A800F140ED8B43B5CD8B01AD0000EDA
:1060E8000A6E010E096E130E116E000E126ED89014
:1060F8003B34D96E3C34DA6E1150D9261250DA226C
:10610800DECF0BF0DDCF0CF04FEC31F03B4A3C2AF0
:10611800DED780A01200D7D7670ED36E21EE74F0B9
:1061280010EE13F0240EDECFE6FFE82EFCD726D0C3
:10613800000E386E000E376E3850800A800F120E2F
:10614800D8B4375CD8B01AD0000E0A6E010E096EAA
:10615800130E116E000E126ED8903734D96E383483
:10616800DA6E1150D9261250DA22DECF0BF0DDCFCD
:106178000CF04FEC31F0374A382ADED780A01200F5
:10618800D7D7000E096E000E0A6E000E0B6E000EB9
:106198000C6E0850051006100710D8B42AD0010E4E
:1061A8000D6E06D0D89005360636073608360D2A05
:1061B80008AEF8D7D89009360A360B360C36055093
:1061C800015C065002580750035808500458D8A0DC
:1061D80009D00550015E0650025A0750035A08506C
:1061E800045A0980D89008320732063205320D2E3B
:1061F800E1D709C001F00AC002F00BC003F00CC0DF
:1062080004F01200000E106E030E0F6EBA90BA92D0
:106218000FC0BBFF0BC00DF00CC00EF0D8900D36B0
:106228000E36D8900D360E36D8900D360E360DC077
:106238000FF00EC010F00FC001F010C002F0000EF9
:10624800046E640E036EE4EC31F001C00FF002C07E
:1062580010F0000144900FB04480000144A002D027
:10626800BD8801D0BD98000144900FB04480000162
:1062780044A002D0BD8A01D0BD9A103410300E6EF1
:106288000F300D6E0D50BE6E9494BD86BD84BD92C8
:10629800BD90BA841200000E106E030E0F6EBA90F5
:1062A800BA920FC0BBFF0BC00DF00CC00EF0D89017
:1062B8000D360E36D8900D360E36D8900D360E3671
:1062C8000DC00FF00EC010F00FC001F010C002F0AA
:1062D800000E046E640E036EE4EC31F001C00FF0A2
:1062E80002C010F0000144920FB04482000144A2A1
:1062F80002D0BD8801D0BD98000144920FB04482FD
:10630800000144A202D0BD8A01D0BD9A10341030D9
:106318000E6E0F300D6E0D50BE6E9494BD86BD840A
:10632800BD92BD90BA8412003200230015000A0005
:106338000200000002000A0015002300320041009C
:106348004F005A006200640062005A004F0041008A
:106358000A0014001E00280032003C0046005000CD
:106368005A0064005A00500046003C0032002800E1
:106378001E0014000A0000003200430052005D00B5
:10638800630063005D0052004300320021001200E8
:106398000700010001000700120021000B00160091
:1063A80021002C00380043004E00590064005900B9
:1063B8004E00430038002C00210016000B0000009E
:1063C800000E066E0450800AF36E800EF35C000E19
:1063D800D8B4035CD8B006D0036C041ED8B0042A25
:1063E800010E066E0250800AF36E800EF35C000EFA
:1063F800D8B4015CD8B006D0016C021ED8B0022A0D
:10640800010E061A000E086E000E076E04500310E7
:10641800D8B41CD0010E056E04D0D89003360436CB
:10642800052A04AEFAD7D890073608360350015C1F
:1064380004500258D8A005D00350015E0450025AF7
:106448000780D89004320332052EEDD70650D8B411
:1064580004D0076C081ED8B0082A07C001F008C08D
:1064680002F01200000E0A6E0450800A800F08E144
:10647800000E035C05E1000E025C02E1000E015C07
:10648800D8B00AD0041E031E021E016C000E0222A0
:1064980003220422010E0A6E0850800A800F08E1C8
:1064A800000E075C05E1000E065C02E1000E055CCB
:1064B800D8B008D0081E071E061E056C000E06225E
:1064C800072208220850051006100710D8B424D057
:1064D800010E096E06D0D8900536063607360836FE
:1064E800092A08AEF8D70550015C06500258075033
:1064F800035808500458D8A008D00550015E06502B
:10650800025A0750035A0850045AD89008320732E2
:1065180006320532092EE7D70A50D8B408D0041E2F
:10652800031E021E016C000E02220322042201C077
:1065380001F002C002F003C003F004C004F012002E
:10654800000E0A6E0850800A800F08E1000E075CF2
:1065580005E1000E065C02E1000E055CD8B00AD029
:10656800081E071E061E056C000E062207220822BA
:10657800010E0A6E0450800A800F08E1000E035CC9
:1065880005E1000E025C02E1000E015CD8B00AD001
:10659800041E031E021E016C000E022203220422A6
:1065A800010E0A1A000E0B6E000E0C6E000E0D6E18
:1065B800000E0E6E0850051006100710D8B42AD029
:1065C800010E096E06D0D89005360636073608360D
:1065D800092A08AEF8D7D8900B360C360D360E3689
:1065E8000550015C065002580750035808500458DB
:1065F800D8A009D00550015E0650025A0750035A28
:106608000850045A0B80D8900832073206320532F7
:10661800092EE1D70A50D8B408D00E1E0D1E0C1E44
:106628000B6C000E0C220D220E220BC001F00CC0C8
:1066380002F00DC003F00EC004F01200959E959C68
:10664800959A9598959495909592839E839C839A14
:1066580083988394839083920F0E046E480EE82EDD
:10666800FED7042EFCD70F0E046E480EE82EFED778
:10667800042EFCD70F0E046E480EE82EFED7042E0B
:10668800FCD70F0E046E480EE82EFED7042EFCD75A
:106698000F0E046E480EE82EFED7042EFCD70F0E00
:1066A800046E480EE82EFED7042EFCD7010E056EA8
:1066B8001ED0839E839C838A838883948390839E41
:1066C800839C838A838883848390030EE82EFED775
:1066D80000F0839E839C838A8388839483900F0E23
:1066E800046E480EE82EFED7042EFCD7052A030EAA
:1066F8000564DFD7839E839C838A839883948390E1
:10670800839E839C838A839883848390030EE82ED8
:10671800FED700F0839E839C838A8398839483901A
:106728000F0E046E480EE82EFED7042EFCD7280E56
:10673800056E0550B0EC33F0100E056E0550B0EC48
:1067480033F0010E056E0550B0EC33F00F0E056EF8
:106758000550B0EC33F01200036E83948390016A05
:1067680003AE01D0012A010E011601320132835015
:1067780001187F0B0118836E03C001F0060E026E2C
:10678800D8900132022EFCD7010E0116013A0146BB
:10679800014683500118BF0B0118836E03C001F036
:1067A800050E026ED8900132022EFCD7010E01169A
:1067B800013A014683500118DF0B0118836E03C0AC
:1067C80001F0013A0F0E0116010E0116013A83502D
:1067D8000118EF0B0118836E060EE82EFED700D0C5
:1067E8008384030EE82EFED700F0839403C001F0E3
:1067F800D8900132D8900132D8900132010E01169A
:1068080001320132835001187F0B0118836E03C0D7
:1068180001F0D8900132D8900132010E0116013AE8
:106828000146014683500118BF0B0118836E03C04F
:1068380001F0D8900132010E0116013A0146835049
:106848000118DF0B0118836E03C001F0010E011659
:10685800013A83500118EF0B0118836E060EE82EDB
:10686800FED700D08384030EE82EFED700F0839471
:106878000F0E016E480EE82EFED7012EFCD712002F
:10688800036E83948380016A03AE01D0012A010E4E
:10689800011601320132835001187F0B0118836EF3
:1068A80003C001F0060E026ED8900132022EFCD70A
:1068B800010E0116013A0146014683500118BF0B2B
:1068C8000118836E03C001F0050E026ED8900132E4
:1068D800022EFCD7010E0116013A01468350011819
:1068E800DF0B0118836E03C001F0013A0F0E011689
:1068F800010E0116013A83500118EF0B0118836E3F
:10690800060EE82EFED700D08384030EE82EFED7AD
:1069180000F0839403C001F0D8900132D89001327E
:10692800D8900132010E011601320132835001184C
:106938007F0B0118836E03C001F0D8900132D89004
:106948000132010E0116013A014601468350011831
:10695800BF0B0118836E03C001F0D8900132010EFD
:106968000116013A014683500118DF0B0118836EA6
:1069780003C001F0010E0116013A83500118EF0B14
:106988000118836E060EE82EFED700D08384030E0E
:10699800E82EFED700F08394030EE82EFED700F011
:1069A8000F0E016E480EE82EFED7012EFCD71200FE
:1069B800000E306E000E2F6E000E316E0FC034F0D8
:1069C80010C035F011C036F012C037F0000E336E2B
:1069D8002E0E326E32C0D9FF33C0DAFF000EDF6EE2
:1069E8003750800A800F08E1000E365C05E1000E82
:1069F800355C02E1000E345CD8B01AD034C001F026
:106A080035C002F036C003F037C004F0FF0E056E43
:106A1800FF0E066EFF0E076EFF0E086EFAEC2EF0E4
:106A280001C034F002C035F003C036F004C037F0BE
:106A38003206D8A0330634C001F035C002F036C0A3
:106A480003F037C004F00A0E056E000E066E000E45
:106A5800076E000E086E36EC32F001C015F002C069
:106A680016F003C017F004C018F015C02FF016C0B8
:106A780030F02F50300F32C0D9FF33C0DAFFDF6E4D
:106A880034C001F035C002F036C003F037C004F05E
:106A98000A0E056E000E066E000E076E000E086EDA
:106AA800A4EC32F001C034F002C035F003C036F077
:106AB80004C037F03750341035103610D8A4B8D782
:106AC8001250800A800F08E1000E115C05E1000EEB
:106AD800105C02E1000E0F5CD8B009D03206D8A0D5
:106AE800330632C0D9FF33C0DAFF2D0EDF6E32C055
:106AF80015F033C016F0151E161E154A162A150E67
:106B08001526000E16221A0E176E000E186E155056
:106B180017261650182217C034F018C035F0000E8A
:106B280035BEFF0E366E376E000E316E13D0315003
:106B3800010DF3503224D96EF4503320DA6E3150FF
:106B4800010DF3501324E16EF4501420E26EDFCFF0
:106B5800E7FF312A31C015F0166A176A186A18500B
:106B6800800A196E3450155C35501658365017582F
:106B78003750800A1958D8A0DAD7FF0E34240F6E80
:106B8800FF0E3520106E12009492000E0F015D6FFB
:106B9800000E176E010E166E000E1A6E120E1B6E88
:106BA8007A0E1C6E000E1D6E1AC001F01BC002F09A
:106BB8001CC003F01DC004F010C005F011C006F0A1
:106BC800076A086AC5EC30F001C01AF002C01BF071
:106BD80003C01CF004C01DF01AC012F01BC013F053
:106BE8001CC014F01DC015F0030E05D0D890153246
:106BF800143213321232E82EF9D712C01AF013C029
:106C08001BF014C01CF015C01DF0000EBA6E28D081
:106C180016C012F017C013F0D89012361336D89059
:106C28001236133612C016F013C017F0BA2A1AC05B
:106C380012F01BC013F01CC014F01DC015F0030E99
:106C480005D0D8901532143213321232E82EF9D703
:106C580012C01AF013C01BF014C01CF015C01DF0B0
:106C6800010E126E010E136E000E146E000E156EDC
:106C780012501A5C13501B5814501C5815501D58AC
:106C8800D8B0C6D71A06000E1B5A1C5A1D5A1AC06D
:106C9800BBFF1AC01EF01BC01FF01CC020F01DC097
:106CA80021F0010E1E26000E1F22202221220EC0D6
:106CB80001F00FC002F0036A046A1EC005F01FC08D
:106CC80006F020C007F021C008F0FAEC2EF001C051
:106CD8001EF002C01FF003C020F004C021F01EC047
:106CE80012F01FC013F020C014F021C015F0020EDE
:106CF800D8901236133614361536E82EF9D712C046
:106D08001EF013C01FF014C020F015C021F01EC0E3
:106D180001F01FC002F020C003F021C004F0640E8F
:106D2800056E000E066E000E076E000E086EC5ECAE
:106D380030F001C01EF002C01FF003C020F004C0F4
:106D480021F01EC018F01FC019F0030E1814186E99
:106D5800196A18C012F019C013F0123A133AF00E5B
:106D6800131612500F0B1312F00E121612C018F051
:106D780013C019F00C0E976E97501810976E1EC01E
:106D880012F01FC013F020C014F021C015F0030E3C
:106D980005D0D8901532143213321232E82EF9D7B2
:106DA80012C01EF013C01FF014C020F015C021F04F
:106DB8001EC090FFBA84000EBC6E12002F0E000198
:106DC800CD6F000E0001C76F000E0001C86F000EE6
:106DD8000001CC6F000E0001CB6F000E0001CA6FDE
:106DE800000E0001C96F000E0001C56F000E000102
:106DF800C46F000E806E570ED36E000E0F015E6FCB
:106E080022EC33F0000E926E000E0F015B6F80A033
:106E18000BD00001CE4BCF2B1A0E3D6EF80EE82E8C
:106E2800FED73D2EFCD700D080A20CD00001CE07A3
:106E3800D8A0CF071A0E3D6EF80EE82EFED73D2ECD
:106E4800FCD700D00001CF51CE11D8A41CD022EC21
:106E580033F0010EB0EC33F00C0EB0EC33F0010E51
:106E6800046E7E0E066EF50E056E010E88EC2FF090
:106E7800010E046E7E0E066E730E056E020E88EC11
:106E88002FF09FEC2EF00001CE05CF11D8A4C3EF50
:106E98003CF022EC33F0010EB0EC33F00C0EB0EC09
:106EA80033F0010E046E7F0E066E8C0E056E010E19
:106EB80088EC2FF0010E046E7E0E066EAD0E056E88
:106EC800020E88EC2FF09FEC2EF080A4C3EF3CF06C
:106ED800000E0001DD6F000E0001DC6F0001CF51D4
:106EE800CE11D8A41CD022EC33F0010EB0EC33F054
:106EF8000C0EB0EC33F0010E046E7E0E066EC50E5D
:106F0800056E010E88EC2FF0010E046E7E0E066EE3
:106F1800DD0E056E020E88EC2FF09FEC2EF00001BE
:106F2800CE05CF11D8A4D7EF3BF022EC33F0010EF9
:106F3800B0EC33F00C0EB0EC33F0010E046E7E0EA4
:106F4800066ED10E056E010E88EC2FF0010E046E50
:106F58007E0E066EDD0E056E020E88EC2FF09FEC9D
:106F68002EF080A4D7EF3BF0000E0001D36F000E87
:106F78000001D26F0001CF51CE11D8A41CD022EC51
:106F880033F0010EB0EC33F00C0EB0EC33F0010E20
:106F9800046E7E0E066E830E056E010E88EC2FF0D1
:106FA800010E046E7F0E066E6A0E056E020E88ECE8
:106FB8002FF09FEC2EF00001CE05CF11D8A4ACD055
:106FC80022EC33F0010EB0EC33F00C0EB0EC33F0E1
:106FD800010E046E7E0E066E910E056E010E88EC93
:106FE8002FF0010E046E7F0E066E6A0E056E020EFD
:106FF80088EC2FF09FEC2EF080A48ED0000E0001BC
:10700800D96F000E0001D86F22EC33F0010EB0ECFE
:1070180033F00C0EB0EC33F0010E046E7F0E066EEA
:107028007C0E056E010E88EC2FF09FEC2EF080A0F0
:107038005FD00001CD2B000E056E020E046E000E0F
:10704800076E010E066ED3EC2EF00001CD5144EC14
:1070580034F09FEC2EF02FD0030E0001D16FE80E14
:1070680027D0070E0001D16FD00E22D00B0E0001E1
:10707800D16FB80E1DD00F0E0001D16FA00E18D021
:10708800130E0001D16F880E13D0170E0001D16FB7
:10709800700E0ED01B0E0001D16F580E09D01F0EB6
:1070A8000001D16F400E04D0230E0001D16F280ECD
:1070B8000001D06F1DD00001CD51310AD8B4CCD712
:1070C800030AD8B4CED7010AD8B4D0D7070AD8B49F
:1070D800D2D7010AD8B4D4D7030AD8B4D6D7010A6C
:1070E800D8B4D8D70F0AD8B4DAD7010AD8B4DCD7BD
:1070F800390E0001CD6503D02F0E0001CD6F80A29F
:1071080006D0000E0001D96F010E0001D86F0001F2
:10711800D951D811D8B478D70001CE51020ACF116D
:10712800D8A409D322EC33F0010EB0EC33F00C0EE6
:10713800B0EC33F0010E046E7E0E066E830E056E03
:10714800010E88EC2FF0010E046E7F0E066E730E92
:10715800056E020E88EC2FF09FEC2EF080A4EBD287
:10716800000E0001DB6F000E0001DA6F0001CE0592
:10717800CF11D8A446D022EC33F0010EB0EC33F096
:107188000C0EB0EC33F0000E046E7F0E066EAA0EE5
:10719800056E010E88EC2FF0000E046E7F0E066E51
:1071A800AF0E056E020E88EC2FF0050E046E7F0EF2
:1071B800066EB90E056E010E88EC2FF0050E046EF2
:1071C8007F0E066EC30E056E020E88EC2FF00A0EB7
:1071D800046E7F0E066ECD0E056E010E88EC2FF044
:1071E8000A0E046E7F0E066ED70E056E020E88EC30
:1071F8002FF09FEC2EF0000E0001CC6F0A0E00015C
:10720800CB6F0001CE51020ACF11D8A446D022EC90
:1072180033F0010EB0EC33F00C0EB0EC33F0000E8E
:10722800046E7F0E066EA50E056E010E88EC2FF01B
:10723800000E046E7F0E066EB40E056E020E88EC0C
:107248002FF0050E046E7F0E066EB90E056E010E48
:1072580088EC2FF0050E046E7F0E066EC30E056EC9
:10726800020E88EC2FF00A0E046E7F0E066ECD0E0D
:10727800056E010E88EC2FF00A0E046E7F0E066E66
:10728800D70E056E020E88EC2FF09FEC2EF0000E44
:107298000001CC6F140E0001CB6F0001CE51030A20
:1072A800CF11D8A446D022EC33F0010EB0EC33F065
:1072B8000C0EB0EC33F0000E046E7F0E066EA50EB9
:1072C800056E010E88EC2FF0000E046E7F0E066E20
:1072D800AF0E056E020E88EC2FF0050E046E7F0EC1
:1072E800066EBE0E056E010E88EC2FF0050E046EBC
:1072F8007F0E066EC30E056E020E88EC2FF00A0E86
:10730800046E7F0E066ECD0E056E010E88EC2FF012
:107318000A0E046E7F0E066ED70E056E020E88ECFE
:107328002FF09FEC2EF0000E0001CC6F1E0E000116
:10733800CB6F0001CE51040ACF11D8A446D022EC5D
:1073480033F0010EB0EC33F00C0EB0EC33F0000E5D
:10735800046E7F0E066EA50E056E010E88EC2FF0EA
:10736800000E046E7F0E066EAF0E056E020E88ECE0
:107378002FF0050E046E7F0E066EB90E056E010E17
:1073880088EC2FF0050E046E7F0E066EC80E056E93
:10739800020E88EC2FF00A0E046E7F0E066ECD0EDC
:1073A800056E010E88EC2FF00A0E046E7F0E066E35
:1073B800D70E056E020E88EC2FF09FEC2EF0000E13
:1073C8000001CC6F280E0001CB6F0001CE51050AD9
:1073D800CF11D8A446D022EC33F0010EB0EC33F034
:1073E8000C0EB0EC33F0000E046E7F0E066EA50E88
:1073F800056E010E88EC2FF0000E046E7F0E066EEF
:10740800AF0E056E020E88EC2FF0050E046E7F0E8F
:10741800066EB90E056E010E88EC2FF0050E046E8F
:107428007F0E066EC30E056E020E88EC2FF00A0E54
:10743800046E7F0E066ED20E056E010E88EC2FF0DC
:107448000A0E046E7F0E066ED70E056E020E88ECCD
:107458002FF09FEC2EF0000E0001CC6F320E0001D1
:10746800CB6F0001CE51060ACF11D8A446D022EC2A
:1074780033F0010EB0EC33F00C0EB0EC33F0000E2C
:10748800046E7F0E066EA50E056E010E88EC2FF0B9
:10749800000E046E7F0E066EAF0E056E020E88ECAF
:1074A8002FF0050E046E7F0E066EB90E056E010EE6
:1074B80088EC2FF0050E046E7F0E066EC30E056E67
:1074C800020E88EC2FF00A0E046E7F0E066ECD0EAB
:1074D800056E010E88EC2FF00A0E046E7F0E066E04
:1074E800DC0E056E020E88EC2FF09FEC2EF0000EDD
:1074F8000001CC6F3C0E0001CB6F0001CE51070A92
:10750800CF11D8A434D022EC33F0010EB0EC33F014
:107518000C0EB0EC33F0010E046E7F0E066E9F0E5B
:10752800056E010E88EC2FF0010E046E7F0E066EBC
:10753800E60E056E020E88EC2FF0060E046E7F0E26
:10754800066EF00E056E010E88EC2FF0060E046E26
:107558007F0E066E930E056E020E88EC2FF09FECE0
:107568002EF0000E0001CC6F460E0001CB6F00011B
:10757800CE51080ACF11D8A434D022EC33F0010E32
:10758800B0EC33F00C0EB0EC33F0010E046E7F0E4D
:10759800066EE10E056E010E88EC2FF0010E046EEA
:1075A8007F0E066EEB0E056E020E88EC2FF0060EAF
:1075B800046E7F0E066EF00E056E010E88EC2FF03D
:1075C800060E046E7F0E066E930E056E020E88EC94
:1075D8002FF09FEC2EF0000E0001CC6F500E000132
:1075E800CB6F0001CE51090ACF11D8A434D022ECB8
:1075F80033F0010EB0EC33F00C0EB0EC33F0010EAA
:10760800046E7F0E066EE10E056E010E88EC2FF0FB
:10761800010E046E7F0E066EE60E056E020E88ECF5
:107628002FF0060E046E7F0E066EF50E056E010E27
:1076380088EC2FF0060E046E7F0E066E930E056E14
:10764800020E88EC2FF09FEC2EF0000E0001CC6F9C
:107658005A0E0001CB6F0001CE510A0ACF11D8A4EF
:1076680034D022EC33F0010EB0EC33F00C0EB0EC59
:1076780033F0010E046E7F0E066EE10E056E010EEC
:1076880088EC2FF0010E046E7F0E066EE60E056E76
:10769800020E88EC2FF0060E046E7F0E066EF00EBA
:1076A800056E010E88EC2FF0060E046E7F0E066E36
:1076B800990E056E020E88EC2FF09FEC2EF0000E4E
:1076C8000001CC6F640E0001CB6F80A00BD00001CD
:1076D800CE4BCF2B1A0E3D6EF80EE82EFED73D2E60
:1076E800FCD700D080A20CD00001CE07D8A0CF07CD
:1076F8001A0E3D6EF80EE82EFED73D2EFCD700D0B0
:107708000B0E0001CE5D000E0001CF59D8A006D0A7
:10771800000E0001CF6F010E0001CE6F80A406D0CD
:10772800000E0001DB6F010E0001DA6F0001DB5172
:10773800DA11D8B415D580A00BD00001CE4BCF2BD1
:107748001A0E3D6EF80EE82EFED73D2EFCD700D05F
:1077580080A20CD00001CE07D8A0CF071A0E3D6E2C
:10776800F80EE82EFED73D2EFCD700D0030E000100
:10777800CE5D000E0001CF59D8A006D0000E000142
:10778800CF6F010E0001CE6F80B080A206D0000E30
:107798000001D36F010E0001D26F0001D351D21145
:1077A800D8B4B8EF37F00001CE51020ACF11D8A4EF
:1077B8001CD022EC33F0010EB0EC33F00C0EB0EC20
:1077C80033F0010E046E7E0E066EC50E056E010EB8
:1077D80088EC2FF0010E046E7E0E066EE90E056E23
:1077E800020E88EC2FF09FEC2EF080A490D0000EB3
:1077F8000001D56F000E0001D46F22EC33F0010EAA
:10780800B0EC33F00C0EB0EC33F00001CDC001F059
:10781800026A030E046EE80E036E8CEC2EF001C0B3
:10782800C9F002C0CAF00001C9C00FF00001CAC007
:1078380010F0116A126A0001000E146E00019C0E0D
:10784800136EDCEC34F00F500001C86F000E00011D
:10785800C66FCBC00EF0CCC00FF0D0C010F0D1C0B6
:1078680011F0C8EC35F0010E046E7F0E066E000EA6
:10787800056E010E88EC2FF0000E056E040E046EE6
:10788800000E076E010E066ED3EC2EF00001CD51EE
:1078980044EC34F0010E046E7F0E066EFA0E056E8F
:1078A800020E88EC2FF0070E046E7F0E066E970E00
:1078B800056E020E88EC2FF00001CBC00FF000011E
:1078C800CCC010F0116A126A0001000E146E00019B
:1078D800B00E136EDCEC34F00F500001C76F040ECD
:1078E800046E0001000E066E0001B00E056E020E59
:1078F80025EC2FF080A006D0000E0001D56F010EF8
:107908000001D46F0001D551D411D8B4F3D780B099
:1079180080A206D0000E0001DD6F010E0001DC6FB1
:1079280080A00BD00001CE4BCF2B1A0E3D6EF80E67
:10793800E82EFED73D2EFCD700D080A20CD0000147
:10794800CE07D8A0CF071A0E3D6EF80EE82EFED748
:107958003D2EFCD700D0040E0001CE5D000E0001C4
:10796800CF59D8A006D0000E0001CF6F010E00013C
:10797800CE6F0001DD51DC11D8B46CEF37F0000197
:10798800CE51020ACF11D8A42ED122EC33F0010E29
:10799800B0EC33F00C0EB0EC33F0010E046E7F0E39
:1079A800066E850E056E010E88EC2FF0010E046E32
:1079B8007E0E066EB90E056E020E88EC2FF09FEC57
:1079C8002EF080A410D1000E0001DD6F000E000122
:1079D800DC6F0001CF51CE11D8A444D022EC33F093
:1079E800010EB0EC33F00C0EB0EC33F0010E046E67
:1079F8007F0E066E460E056E010E88EC2FF0010E06
:107A0800046E7F0E066E4F0E056E020E88EC2FF088
:107A18009FEC2EF080A426D0000E0001D76F000E38
:107A28000001D66F22EC33F0010EB0EC33F00C0EEF
:107A3800B0EC33F0010E046E7F0E066E3F0E056E3D
:107A4800010E88EC2FF0BCEC2FF080A206D0000EBF
:107A58000001D76F010E0001D66F0001D751D61172
:107A6800D8B4F1D70001CE05CF11D8A444D022EC68
:107A780033F0010EB0EC33F00C0EB0EC33F0010E25
:107A8800046E7F0E066E3D0E056E010E88EC2FF01B
:107A9800010E046E7F0E066E580E056E020E88ECFF
:107AA8002FF09FEC2EF080A426D0000E0001D76F97
:107AB800000E0001D66F22EC33F0010EB0EC33F06B
:107AC8000C0EB0EC33F0010E046E7F0E066E510EF4
:107AD800056E010E88EC2FF0F1EC2FF080A206D095
:107AE800000E0001D76F010E0001D66F0001D751BB
:107AF800D611D8B4F1D70001CE51020ACF11D8A4BB
:107B08003BD022EC33F0010EB0EC33F00C0EB0ECAD
:107B180033F0010E046E7F0E066E610E056E010EC7
:107B280088EC2FF09FEC2EF080A426D0000E0001E8
:107B3800D76F000E0001D66F22EC33F0010EB0ECC7
:107B480033F00C0EB0EC33F0010E046E7F0E066EAF
:107B5800630E056E010E88EC2FF026EC30F080A243
:107B680006D0000E0001D76F010E0001D66F00018C
:107B7800D751D611D8B4F1D780A00BD00001CE4B85
:107B8800CF2B1A0E3D6EF80EE82EFED73D2EFCD7F1
:107B980000D080A20CD00001CE07D8A0CF071A0EC3
:107BA8003D6EF80EE82EFED73D2EFCD700D0030E12
:107BB8000001CE5D000E0001CF59D8A006D0000EFE
:107BC8000001CF6F000E0001CE6F80B280A006D0FA
:107BD800000E0001DD6F010E0001DC6F0001DD51B8
:107BE800DC11D8B4F6D60001CE51030ACF11D8A4BF
:107BF8002BD122EC33F0010EB0EC33F00C0EB0ECCC
:107C080033F0010E046E7E0E066E9F0E056E010E99
:107C180088EC2FF09FEC2EF080A416D1000E000106
:107C2800DD6F000E0001DC6F0001CF51CE11D8A42A
:107C38004AD0000E0001D76F000E0001D66F22EC6B
:107C480033F0010EB0EC33F00C0EB0EC33F0010E53
:107C5800046E7F0E066E150E056E010E88EC2FF071
:107C6800010E046E7F0E066E1F0E056E020E88EC66
:107C78002FF09FEC2EF080A426D0000E0001D76FC5
:107C8800000E0001D66F22EC33F0010EB0EC33F099
:107C98000C0EB0EC33F0010E046E7F0E066E0D0E66
:107CA800056E010E88EC2FF05BEC30F080A006D05A
:107CB800000E0001D76F010E0001D66F0001D751E9
:107CC800D611D8B4F1D70001CE05CF11D8A444D02D
:107CD80022EC33F0010EB0EC33F00C0EB0EC33F0C4
:107CE800010E046E7F0E066E0B0E056E010E88ECFB
:107CF8002FF0010E046E7F0E066E290E056E020E21
:107D080088EC2FF09FEC2EF080A426D0000E000106
:107D1800D76F000E0001D66F22EC33F0010EB0ECE5
:107D280033F00C0EB0EC33F0010E046E7F0E066ECD
:107D3800210E056E010E88EC2FF090EC30F080A03B
:107D480006D0000E0001D76F010E0001D66F0001AA
:107D5800D751D611D8B4F1D70001CE51020ACF11AC
:107D6800D8A43BD022EC33F0010EB0EC33F00C0E6B
:107D7800B0EC33F0010E046E7F0E066E330E056E06
:107D8800010E88EC2FF09FEC2EF080A426D0000E78
:107D98000001D76F000E0001D66F22EC33F0010E00
:107DA800B0EC33F00C0EB0EC33F0010E046E7F0E25
:107DB800066E350E056E010E88EC2FF05BEC30F088
:107DC80080A006D0000E0001D76F010E0001D66F0B
:107DD8000001D751D611D8B4F1D780A00BD000013B
:107DE800CE4BCF2B1A0E3D6EF80EE82EFED73D2E49
:107DF800FCD700D080A20CD00001CE07D8A0CF07B6
:107E08001A0E3D6EF80EE82EFED73D2EFCD700D098
:107E1800030E0001CE5D000E0001CF59D8A006D098
:107E2800000E0001CF6F000E0001CE6F80B280A05F
:107E380006D0000E0001DD6F010E0001DC6F0001AD
:107E4800DD51DC11D8B4F0D6040E0001CE5D000E71
:107E58000001CF59D8A00BEF37F0000E0001CF6F0B
:107E6800010E0001CE6F0BEF37F00050726F79658D
:107E780063746F2046696E616C2000202020467272
:107E8800656375656E636961003D3E204672656392
:107E980075656E636961003D3E20547269616E6765
:107EA800756C61720020202053656E6F6964616C87
:107EB800003D3E2053656E6F6964616C0020202090
:107EC800496E677265736172003D3E20496E677244
:107ED8006573617200202020436F6D656E7A617250
:107EE800003D3E20436F6D656E7A61720020202050
:107EF8002020444943495300463A2020303030205E
:107F0800687A002020205472696E2031003D3E209E
:107F18005472696E2031002020205472696E20321C
:107F2800003D3E205472696E2032003D3E2054725E
:107F3800696E20330020202053696E2031003D3EB9
:107F48002053696E20310020202053696E203200B2
:107F58003D3E2053696E2032003D3E2053696E201D
:107F680033002020204369636C6F003D3E20436945
:107F7800636C6F00202030303020487A00202020A9
:107F880050574D003D3E2050574D00203130302590
:107F9800002A3130302500202A37302500203130A2
:107FA80025002A3130250020323025002A3230259C
:107FB8000020333025002A333025002034302500B6
:107FC8002A3430250020353025002A353025002078
:107FD800363025002A363025002037302500203855
:107FE8003025002A3830250020393025002A39303C
:087FF8002500433A20000000BF
:020000040020DA
:08000000FFFFFFFFFFFFFFFF00
:020000040030CA
:0E00000000085E3CFFD381FF0FC00FE00F40F1
:00000001FF
